:020000040000FA
:100000000C9453000C944B030C9424030C947B002D
:100010000C947B000C947B000C947B000C947B0074
:100020000C947B000C947B000C947B000C947B0064
:100030000C947B000C947B000C947B000C947B0054
:100040000C94DA020C947B000C94A8020C948202AB
:100050000C947B000C947B000C947B000C947B0034
:100060000C947B000C947B0000000000250028000D
:100070002B0000000000240027002A0004040404D0
:100080000404040402020202020203030303030342
:10009000010204081020408001020408102001021F
:1000A00004081020A30411241FBECFEFD8E0DEBF48
:1000B000CDBF11E0A0E0B1E0E4EFF9E002C00590AF
:1000C0000D92AA31B107D9F722E0AAE1B1E001C04F
:1000D0001D92A031B207E1F710E0C3E5D0E004C003
:1000E0002197FE010E94F204C235D107C9F70E9490
:1000F00072030C94F8040C940000AF92BF92CF925C
:10010000DF92EF92FF920F931F93CF93DF936C01D7
:100110007B018B01040F151FEB015E01AE18BF08B8
:10012000C017D10759F06991D601ED91FC9101906A
:10013000F081E02DC6010995892B79F7C501DF9182
:10014000CF911F910F91FF90EF90DF90CF90BF90D4
:10015000AF900895FC01538D448D252F30E0842FFE
:1001600090E0821B930B541710F0CF9608950197DF
:100170000895FC01918D828D981761F0A28DAE0FCC
:10018000BF2FB11D5D968C91928D9F5F9F73928F53
:1001900090E008958FEF9FEF0895FC01918D828D7F
:1001A000981731F0828DE80FF11D858D90E008954C
:1001B0008FEF9FEF0895FC01918D228D892F90E0A4
:1001C000805C9F4F821B91098F739927089583E765
:1001D00091E00E94DB0021E0892B09F420E0822FCE
:1001E000089580E090E0892B29F00E94E7008111BA
:1001F0000C9400000895FC01A48DA80FB92FB11D27
:10020000A35ABF4F2C91848D90E001968F7399274C
:10021000848FA689B7892C93A089B1898C9183702A
:1002200080648C93938D848D981306C00288F38923
:10023000E02D80818F7D80830895EF92FF920F9350
:100240001F93CF93DF93EC0181E0888F9B8D8C8D82
:1002500098131AC0E889F989808185FF15C09FB776
:10026000F894EE89FF896083E889F9898081837039
:10027000806480839FBF81E090E0DF91CF911F91E8
:100280000F91FF90EF900895F62E0B8D10E00F5F09
:100290001F4F0F731127E02E8C8D8E110CC00FB6DF
:1002A00007FCFACFE889F989808185FFF5CFCE0177
:1002B0000E94FB00F1CFEB8DEC0FFD2FF11DE35AF7
:1002C000FF4FF0829FB7F8940B8FEA89FB898081FA
:1002D0008062CFCFCF93DF93EC01888D8823B9F074
:1002E000AA89BB89E889F9898C9185FD03C0808141
:1002F00086FD0DC00FB607FCF7CF8C9185FFF2CFBE
:10030000808185FFEDCFCE010E94FB00E9CFDF9118
:10031000CF9108953FB7F8948091430190914401A3
:10032000A0914501B091460126B5A89B05C02F3F7D
:1003300019F00196A11DB11D3FBFBA2FA92F982F0B
:100340008827BC01CD01620F711D811D911D42E006
:10035000660F771F881F991F4A95D1F70895089552
:10036000CF92DF92EF92FF920F931F930E948A0128
:1003700000913A0110913B0120913C0130913D01E7
:100380006B017C01C01AD10AE20AF30A60933A01B8
:1003900070933B0180933C0190933D018091380123
:1003A00090913901FC01EE0FFF1FE65EFE4FD182F6
:1003B000C082019690933901809338010F9781F4A0
:1003C000EAE1F1E0A7E4B1E0819191918D939D93F1
:1003D00081E0E833F807C1F7109239011092380133
:1003E0001F910F91FF90EF90DF90CF9008958F9223
:1003F0009F92AF92BF920F931F93CF93DF93CDB78E
:10040000DEB7A1970FB6F894DEBF0FBECDBF19A21D
:10041000423008F44AE08E010F5D1F4F842E912C6C
:10042000B12CA12CA50194010E94D004E62FB901A2
:10043000CA01EA3044F5E05DD801EE938D01232B2B
:10044000242B252B79F790E080E0109769F0FD01CF
:1004500001900020E9F73197AF014A1B5B0BBD010A
:1004600083E791E00E947D00A1960FB6F894DEBF6D
:100470000FBECDBFDF91CF911F910F91BF90AF9075
:100480009F908F900895E95CD7CFFC0101900020E8
:10049000E9F73197AF01481B590BBC0183E791E0A5
:1004A0000C947D00CF92DF92EF92FF92CF93DF9377
:1004B0006C01990FEE08FF08F7FE19C06DE283E7A3
:1004C00091E00E941D01EC0166277727CB016C1992
:1004D0007D098E099F094AE00E94F7018C0F9D1F3C
:1004E000DF91CF91FF90EF90DF90CF9008954AE099
:1004F000C701B601DF91CF91FF90EF90DF90CF90D1
:100500000C94F7011F920F920FB60F9211242F93A4
:100510003F934F935F936F937F938F939F93AF938B
:10052000BF93EF93FF9383E791E00E94FB00FF915D
:10053000EF91BF91AF919F918F917F916F915F915B
:100540004F913F912F910F900FBE0F901F901895D4
:100550001F920F920FB60F9211242F938F939F9398
:10056000EF93FF93E0918301F09184018081E0910A
:100570008901F0918A0182FD1BC0908180918C01DC
:100580008F5F8F7320918D01821741F0E0918C0174
:10059000F0E0ED58FE4F958F80938C01FF91EF9125
:1005A0009F918F912F910F900FBE0F901F901895D4
:1005B0008081F4CF1F920F920FB60F9211242F93C8
:1005C0003F938F939F93AF93BF9380913F019091FF
:1005D0004001A0914101B091420130913E0123E0E0
:1005E000230F2D3758F50196A11DB11D20933E0113
:1005F00080933F0190934001A0934101B093420149
:100600008091430190914401A0914501B091460130
:100610000196A11DB11D8093430190934401A093C5
:100620004501B0934601BF91AF919F918F913F914A
:100630002F910F900FBE0F901F90189526E8230F53
:100640000296A11DB11DD2CF1F920F920FB60F922D
:1006500011242F933F934F935F936F937F938F93C7
:100660009F93AF93BF93EF93FF93E0910201F091BB
:1006700003010995FF91EF91BF91AF919F918F91E8
:100680007F916F915F914F913F912F910F900FBE8E
:100690000F901F9018951F920F920FB60F92112472
:1006A0002F933F934F935F936F937F938F939F937A
:1006B000AF93BF93EF93FF93E0910001F09101019D
:1006C0000995FF91EF91BF91AF919F918F917F918C
:1006D0006F915F914F913F912F910F900FBE0F90AF
:1006E0001F901895789484B5826084BD84B581602C
:1006F00084BD85B5826085BD85B5816085BD8091ED
:100700006E00816080936E00109281008091810064
:10071000826080938100809181008160809381005C
:10072000809180008160809380008091B10084601E
:100730008093B1008091B00081608093B00080917F
:100740007A00846080937A0080917A00826080933E
:100750007A0080917A00816080937A0080917A009B
:10076000806880937A001092C100E0918301F0913B
:10077000840182E08083E0917F01F091800110820A
:10078000E0918101F09182018FEC808310928B01C6
:10079000E0918701F091880186E08083E0918501F6
:1007A000F0918601808180618083E0918501F091E4
:1007B0008601808188608083E0918501F0918601C7
:1007C000808180688083E0918501F091860180813D
:1007D0008F7D8083E8E9F0E02491E4E8F0E0849103
:1007E0008823C9F090E0880F991FFC01EE58FF4F55
:1007F00045915491FC01E859FF4FA591B4919FB7E1
:10080000F894FA013081822F809583238083EC91C4
:10081000E22BEC939FBF80EB91E0909301018093DA
:100820000001809169008C7F826080936900E89A62
:1008300000E010E0E5E6F1E08EE090E032912291F8
:10084000213137420CF0EC010197C0F7FE01EE0FA9
:10085000FF1FE75BFE4FA7E6B1E081919191885EB3
:1008600093408D939D9341E0A337B407B1F78091F6
:100870006701909168010E94520286E191E00E9416
:1008800045028091690190916A010E94520286E1BD
:1008900091E00E94450280916B0190916C010E9451
:1008A000520286E191E00E94450280916D01909193
:1008B0006E010E94520286E191E00E944502809101
:1008C0006F01909170010E94520286E191E00E94B6
:1008D000450280917101909172010E94520288E15B
:1008E00091E00E9445020E948A014B015C0184E66E
:1008F000C82ED12CE12CF12C0E948A0168197909AB
:100900008A099B09683E734081059105A8F381E03F
:10091000C81AD108E108F108E8EE8E0EE3E09E1E49
:10092000A11CB11CC114D104E104F10429F7011583
:10093000110509F47FCF0E94E700882309F47ACFDC
:100940000E94000077CFE3E7F1E01382128288EE85
:1009500093E0A0E0B0E084839583A683B78388E02A
:1009600091E09183808385EC90E09587848784EC87
:1009700090E09787868780EC90E0918B808B81EC6C
:1009800090E0938B828B82EC90E0958B848B86EC4D
:1009900090E0978B868B118E128E138E148E089595
:1009A000A1E21A2EAA1BBB1BFD010DC0AA1FBB1F73
:1009B000EE1FFF1FA217B307E407F50720F0A21BE5
:1009C000B30BE40BF50B661F771F881F991F1A9452
:1009D00069F760957095809590959B01AC01BD017C
:1009E000CF010895EE0FFF1F0590F491E02D0994BB
:1009F000F894FFCFAF01AF01000000001D017D00A2
:0E0A0000AA006A01DB00B900CD0009000A005F
:107E0000112484B714BE81FFF0D085E080938100F7
:107E100082E08093C00088E18093C10086E0809377
:107E2000C20080E18093C4008EE0C9D0259A86E02C
:107E300020E33CEF91E0309385002093840096BBD3
:107E4000B09BFECF1D9AA8958150A9F7CC24DD24C4
:107E500088248394B5E0AB2EA1E19A2EF3E0BF2EE7
:107E6000A2D0813461F49FD0082FAFD0023811F036
:107E7000013811F484E001C083E08DD089C08234E0
:107E800011F484E103C0853419F485E0A6D080C0E4
:107E9000853579F488D0E82EFF2485D0082F10E0AE
:107EA000102F00270E291F29000F111F8ED06801E7
:107EB0006FC0863521F484E090D080E0DECF843638
:107EC00009F040C070D06FD0082F6DD080E0C81688
:107ED00080E7D80618F4F601B7BEE895C0E0D1E017
:107EE00062D089930C17E1F7F0E0CF16F0E7DF06D8
:107EF00018F0F601B7BEE89568D007B600FCFDCFD4
:107F0000A601A0E0B1E02C9130E011968C91119780
:107F100090E0982F8827822B932B1296FA010C0160
:107F200087BEE89511244E5F5F4FF1E0A038BF0790
:107F300051F7F601A7BEE89507B600FCFDCF97BE46
:107F4000E89526C08437B1F42ED02DD0F82E2BD052
:107F50003CD0F601EF2C8F010F5F1F4F84911BD097
:107F6000EA94F801C1F70894C11CD11CFA94CF0C13
:107F7000D11C0EC0853739F428D08EE10CD085E9AC
:107F80000AD08FE07ACF813511F488E018D01DD067
:107F900080E101D065CF982F8091C00085FFFCCF94
:107FA0009093C60008958091C00087FFFCCF809118
:107FB000C00084FD01C0A8958091C6000895E0E648
:107FC000F0E098E1908380830895EDDF803219F02E
:107FD00088E0F5DFFFCF84E1DECF1F93182FE3DFCA
:107FE0001150E9F7F2DF1F91089580E0E8DFEE27F6
:047FF000FF270994CA
:027FFE00040479
:00000001FF
